:020000040000FA
:040000008A01FC284D
:08000800F0000308F1000B11E8
:100010004030860672080038031DF2037108830021
:10002000F00E700E09004C34463444342D345034F4
:10003000493443344D346F34643465346D34203482
:1000400030342E34353430340D340A3400340D3429
:100050000A342B3443344D34473453343A34203447
:100060003134393438340A340D3400342B344334C9
:100070004D3447344C343A34203431342C34223427
:10008000523445344334203455344E34523445349C
:100090004134443422342C3422342B34333433343A
:1000A000363431343234333434343534363437340E
:1000B000383422342C342C342234323437342F3434
:1000C000303439342F34313430342C343134353405
:1000D0003A34303430343A34303430342B343334EE
:1000E000323422340A340D34483465346C346C3480
:1000F0006F342E342E342E340A340D3400340D3443
:100100000A344534523452344F3452340D340A34A4
:1001100000340D340A344F344B340D340A34003477
:100120000A340D345934653461347234203428343F
:1001300030342D343934393429343A3400340A34E3
:100140000D344D346F346E347434683420342834B4
:1001500031342D343134323429343A3400340A34D1
:100160000D3444346134793420346F3466342034AF
:100170005734653465346B342034283431342D34AD
:10018000373429343A3400340A340D344434613479
:10019000743465342034283431342D3432343834D6
:1001A0002C34323439342C34333430342C3433342A
:1001B000313429343A3400340A340D3448346F343D
:1001C000753472342034283430342D34323433349E
:1001D00029343A3400340A340D344D3469346E34E1
:1001E0007534743465342034283430342D34353447
:1001F000393429343A3400343E2280308600452296
:100200008316031387308100831203130730F20033
:10021000A0308B00123064232130A0003214720809
:100220000038031D1729803086060730F200562259
:1002300003190F29B1003B220D3A03192B2920087D
:10024000303A03190F2920088400831331088000F5
:10025000040AA0000F290A303B22213084008313B6
:1002600041300006031D3A29840A54300006031D5C
:100270003A293D297E3064235E29B521031D5C297E
:100280002130013E8400CB21031D5C292130013E39
:100290008400EA21031D5C292130013E8400DB211A
:1002A000031D5C292130013E84008D21031D5C2942
:1002B0002130013E84006E21883064232130A0006B
:1002C000303A03196B292008840083130030800022
:1002D000040AA00060292130A0000F29840A2B30D5
:1002E0000006031D8B29840A43300006031D8B2959
:1002F000840A4D300006031D8B29840A473000060E
:10030000031D8B29840A4C300006031D8B293530D0
:1003100064230311080003150800840A2B3000062B
:10032000031DB329840A43300006031DB329840A40
:100330004D300006031DB329840A47300006031D13
:10034000B329840A53300006031DB3293E305F22CF
:1003500056220319A8295F221A3A031DA82926301C
:1003600064230311080003150800840A45300006C1
:10037000031DC929840A30300006031DC22932102A
:100380000311080031300006031DC929321403117E
:10039000080003150800840A26300006031DC92939
:1003A000840A56300006031DD92912306423031134
:1003B000080003150800840A52300006031DE829CE
:1003C000840A44300006031DE829F92103110800BE
:1003D00003150800840A57300006031DF729840A14
:1003E00052300006031DF7291F2A031108000315C8
:1003F00008000D305F220A305F228B2220307722E6
:10040000440877222F305F22450877222F305F2261
:100410004708772220305F224608772220305F226B
:10042000480877223A305F22490877223A305F2223
:100430004A0877220D305F220A305F2208008F3091
:1004400064236522C4009E3064236522C500C33046
:1004500064236522C700AE3064236522C600DB300A
:1004600064236522C800EA3064236522C900003095
:10047000CA00C022F52932185F2208008316031330
:100480003F308600831203130800193083160313CC
:100490009900181598168312031318169817080058
:1004A000831203138C1E522A1A08080083120313A6
:1004B0008C1E5D2A1A080311080003150800831218
:1004C00003130C1E612A9900080050223B22D03EE3
:1004D000C10050223B220D3A031D702A410808003A
:1004E0000D3AD03EC000C10E410840040800C100D2
:1004F000410E0F39063E831C7F2A313E802A2A3E58
:100500005F2241080F39063E831C882A313E892A22
:100510002A3E5F2208000516000083160313851487
:10052000831203130512D0302B2300302B23051622
:100530000000831603138514831203130512D130B0
:100540002B23E422CA000623E422C9000623E42266
:10055000C8000623E422C6000623E422C7000623BF
:10056000E422C5000623E422C4001923051200007A
:100570000000831603138514831203130516080065
:100580000516000083160313851483120313051246
:10059000D0302B2300302B234A082B2349082B2350
:1005A00048082B2346082B2347082B2345082B23D9
:1005B00044082B2305120000000083160313851442
:1005C00083120313051608008316031305168312FE
:1005D00003130830C300851083160313851083129C
:1005E0000313C101C10DC101C10D8316031385148D
:1005F00083120313051A4114851083160313851003
:1006000083120313C30BF42A410808000512831652
:100610000313051283120313831603138514831225
:100620000313000085108316031385108312031330
:10063000080005168316031305128312031383168D
:100640000313851483120313851083160313851077
:10065000831203130800C1008316031305128312CB
:1006600003130830C300851083160313851083120B
:1006700003130512C11B0516831603138514831279
:100680000313C10D85108316031385108312031302
:10069000C30B392B8316031305168312031385101E
:1006A0008316031385108312031383160313851413
:1006B000831203138510831603138510831203130B
:1006C0000800C00A40088200C0006123003E0319F0
:0606D00008005F22652B0B
:02400E00313F40
:00000001FF
