:020000040000FA
:040000008A01082940
:08000800F0000308F1000B11E8
:100010004030860672080038031DF2037108830021
:10002000F00E700E09004C34463444342D345034F4
:10003000493443344D346F34643465346D34203482
:1000400030342E34343430340D340A3400340D342A
:100050000A342B3443344D34473453343A34203447
:100060003134393438340A340D3400342B344334C9
:100070004D3447344C343A34203431342C34223427
:10008000523445344334203455344E34523445349C
:100090004134443422342C3422342B34333433343A
:1000A000363431343234333434343534363437340E
:1000B000383422342C342C342234323437342F3434
:1000C000303439342F34313430342C343134353405
:1000D0003A34303430343A34303430342B343334EE
:1000E000323422340A340D34483465346C346C3480
:1000F0006F342E342E342E340A340D3400340D3443
:100100000A344534523452344F3452340D340A34A4
:1001100000340D340A344F344B340D340A34003477
:100120000A340D345934653461347234203428343F
:1001300030342D343934393429343A3420340034CD
:100140004D346F346E347434683420342834313490
:100150002D343134323429343A34203400344434A8
:100160006134793420346F34663420345734653444
:1001700065346B342034283431342D343734293409
:100180003A342034003444346134743465342034D7
:10019000283431342D34323438342C343234393438
:1001A0002C34333430342C343334313429343A342D
:1001B0002034003448346F34753472342034283499
:1001C00030342D343234333429343A34203400344A
:1001D0004D3469346E3475347434653420342834C5
:1001E00030342D343534393429343A342034003421
:1001F0005334653463346F346E34643420342834BB
:1002000030342D343534393429343A342034003400
:100210004A228030860051228316031387308100E2
:10022000831203130730F200A0308B0012307923C1
:100230002130A000321472080038031D23298030B9
:1002400086060730F200622203191B29B1004722FB
:100250000D3A031937292008303A03191B292008C1
:100260008400831331088000040AA0001B290A308F
:10027000472221308400831341300006031D4629A4
:10028000840A54300006031D462949297E3079230B
:100290006A29C121031D68292130013E8400D7212C
:1002A000031D68292130013E8400F621031D6829C1
:1002B0002130013E8400E721031D68292130013EE1
:1002C00084009921031D68292130013E84007A2190
:1002D000883079232130A000303A0319772920088B
:1002E0008400831300308000040AA0006C292130B0
:1002F000A0001B29840A2B300006031D9729840ABD
:1003000043300006031D9729840A4D300006031D63
:100310009729840A47300006031D9729840A4C3028
:100320000006031D972935307923031108000315B2
:100330000800840A2B300006031DBF29840A4330BD
:100340000006031DBF29840A4D300006031DBF2986
:10035000840A47300006031DBF29840A5330000673
:10036000031DBF293E306B2262220319B4296B2280
:100370001A3A031DB4292630792303110800031506
:100380000800840A45300006031DD529840A303050
:100390000006031DCE29321003110800313000067B
:1003A000031DD52932140311080003150800840A1F
:1003B00026300006031DD529840A56300006031D89
:1003C000E529123079230311080003150800840A77
:1003D00052300006031DF429840A44300006031D30
:1003E000F429052A0311080003150800840A573070
:1003F0000006031D032A840A52300006031D032A47
:10040000292A03110800031508000D306B220A3059
:100410006B22A02244088C222F306B2245088C22AC
:100420002F306B2247088C2220306B2246088C220A
:1004300020306B2248088C223A306B2249088C22EB
:100440003A306B224A088C220D306B220A306B2224
:1004500008008F3079237122C4009F3079237122E4
:10046000C500C23079237122C700AE3079237122D2
:10047000C600D93079237122C800E7307923712270
:10048000C900F73079237122CA00D522080032183A
:100490006B220800831603133F3086008312031378
:1004A0000800193083160313990018159816831243
:1004B0000313181698170800831203138C1E5E2A64
:1004C0001A080800831203138C1E692A1A080311E4
:1004D000080003150800831203130C1E6D2A9900EF
:1004E0000800C101622247220D3A031D792A410802
:1004F00008000D3AD03E001AF93E0F394112C112E0
:100500004113C113C0004108C2004008C1004208A5
:10051000420E4104C100722AC100410E0F39063E4D
:10052000831C942A313E952A2A3E6B2241080F39BA
:10053000063E831C9D2A313E9E2A2A3E6B220800DD
:100540000516000083160313851483120313051286
:10055000D0304023003040230516000083160313DB
:100560008514831203130512D1304023F922CA00E7
:100570001B23F922C9001B23F922C8001B23F922DF
:10058000C6001B23F922C7001B23F922C5001B2329
:10059000F922C4002E230512000000008316031365
:1005A0008514831203130516080005160000831630
:1005B00003138514831203130512D0304023003037
:1005C00040234A084023490840234808402346085E
:1005D0004023470840234508402344084023051290
:1005E00000000000831603138514831203130516FD
:1005F0000800831603130516831203130830C30083
:10060000851083160313851083120313C101C10DD6
:10061000C101C10D83160313851483120313051A38
:100620004114851083160313851083120313C30B23
:10063000092B4108080005128316031305128312C3
:10064000031383160313851483120313000085100C
:1006500083160313851083120313080005168316EF
:1006600003130512831203138316031385148312D5
:1006700003138510831603138510831203130800D8
:10068000C100831603130512831203130830C3003D
:100690008510831603138510831203130512C11BE3
:1006A000051683160313851483120313C10D8510D9
:1006B00083160313851083120313C30B4E2B83166B
:1006C0000313051683120313851083160313851075
:1006D00083120313831603138514831203138510E7
:1006E000831603138510831203130800C00A400801
:1006F0008200C0007623003E031908006B227A2B8B
:02400E00313F40
:00000001FF
